T3031392178I P                                VIA  CHIESA 1                      RETTORGOLE                         360300109VI093                                   006041                                   13021000000088   
T3031392177LUI                                VIA DELLE PALANCA 17               SCURELLE                           380501109TN093                                   172047                                   10021000000089   
T3031391571VIL                                VIA FISCALINA 13                   SESTO                              390301109BZ093                                   172107                                   10021000000090   
T3031391846LUI                                VIA DELLE PALANCA 17               SCURELLE                           380501109TN093                                   172047                                   10021000000091   
T3031392180VID                                VLE  EUROPA, 21                    CASTELLEONE                        260123109CR093                                   223223                                   57021000000092   
T3031392213LUI                                VIA DELLE PALANCA 17               SCURELLE                           380501109TN093                                   172047                                   10021000000093   
T3031392214LUI                                VIA DELLE PALANCA 17               SCURELLE                           380501109TN093                                   172047                                   10021000000094   
T3031392180VID                                VLE  EUROPA, 21                    CASTELLEONE                        260123109CR093                                   223223                                   57021000000095   
T3031392222TEA                                VIA  CARAVAGGIO (12 PIANO) 288     NAPOLI                             801260109NA093                                   067143                                   15021000000096   
T3031392224FOR                                VIA  F.MARCHETTI 40 40             ANCONA                             601250109AN093                                   066140                                   25021000000097   
TTK-OBDORD-Wel                                Chemin Louis-Hubert 1              Petit-Lancy                        1213 010999093                                   181292                                   00021000000098   
TTK-OBDORD-Wel                                Chemin Louis-Hubert 1              Petit-Lancy                        1213 580999093                                   181292                                   00021000000099   
T3031392228TEA                                VIA  CARAVAGGIO (12 PIANO) 288     NAPOLI                             801260109NA093                                   067143                                   15021000000100   
TTK-OBDORD-Wel                                Chemin Louis-Hubert 1              Petit-Lancy                        1213 580999093                                   089380                                   01021000000101   
T3031392215I P                                VIA  CHIESA 1                      RETTORGOLE                         360300109VI093                                   006041                                   13021000000102   
T3031392215I P                                VIA  CHIESA 1                      RETTORGOLE                         360300109VI093                                   006041                                   13021000000103   
T3031392238FOR                                VIA  F.MARCHETTI 40 40             ANCONA                             601250109AN093                                   066140                                   25021000000104   
T3031392235LUI                                VIA DELLE PALANCA 17               SCURELLE                           380501109TN093                                   172047                                   10021000000105   
T3031392236VIL                                VIA FISCALINA 13                   SESTO                              390301109BZ093                                   172107                                   10021000000106   
T3031392217VID                                VLE  EUROPA, 21                    CASTELLEONE                        260123109CR093                                   223223                                   57021000000107   
T3031392249VID                                VLE  EUROPA, 21                    CASTELLEONE                        260123109CR093                                   223223                                   57021000000110   
T3031391128ACC                                VIA E. MATTEI 6                    SAN MARTINO SPINO                  410371109MO093                                   001018                                   62021000000109   
T3031391479FOR                                VIA  F.MARCHETTI 40 40             ANCONA                             601250109AN093                                   066140                                   25021000000109   
T3031391702CIN                                VIA CASILINA 1930/B                FINOCCHIO                          001321309RM093                                   063109                                   22021000000109   
T3031392176LUI                                P.ZZA SAN GIOVANNI 2               TELVE VALSUGANA                    380501509TN093                                   172047                                   10021000000111   
T3031392279BEL                                VIA  EINSTEIN 26/28                ASSAGO                             200573509MI093                                   220220                                   21021000000112   
T3031392280DAB                                LUNG TEVERE DEGLI INVENTORI 28/B   ROMA                               001463509RM093                                   114114                                   29021000000112   
TTK-OBDORD-Wel                                Chemin Louis-Hubert 1              Petit-Lancy                        1213 580999093                                   181292                                   00021000000113   
Ttesting002CAP                                VIA  FOSSO DEL CANNETO 32/F        GALAZZANO                          47891350999093                                   131131                                   62021000000112   
Ttesting001CAP                                VIA  FOSSO DEL CANNETO 32/F        GALAZZANO                          47891350999093                                   131131                                   62021000000112   
Ttesting003CAP                                VIA  FOSSO DEL CANNETO 32/F        GALAZZANO                          47891350999093                                   131131                                   62021000000112   
Ttesting002CAP                                VIA  FOSSO DEL CANNETO 32/F        GALAZZANO                          47891350999093                                   131131                                   62021000000112   
Ttesting004CAP                                VIA  FOSSO DEL CANNETO 32/F        GALAZZANO                          47891350999093                                   131131                                   62021000000112   
Ttesting005CAP                                VIA  FOSSO DEL CANNETO 32/F        GALAZZANO                          47891350999093                                   131131                                   62021000000112   
TTK-OBDORD-Wel                                Chemin Louis-Hubert 1              Petit-Lancy                        1213 310999093                                   181292                                   00021000000117   
T3031392281CAP                                VIA  FOSSO DEL CANNETO 32/F        GALAZZANO                          47891350999093                                   131131                                   62021000000112   
T3031392280DAB                                LUNG TEVERE DEGLI INVENTORI 28/B   ROMA                               001463509RM093                                   114114                                   29021000000112   
T3031392279BEL                                VIA  EINSTEIN 26/28                ASSAGO                             200573509MI093                                   220220                                   21021000000112   
TTK-OBDORD-Wel                                Chemin Louis-Hubert 1              Petit-Lancy                        1213 310999093                                   089380                                   01021000000119   
T3031392292TEA                                VIA  CARAVAGGIO (12 PIANO) 288     NAPOLI                             801260109NA093                                   067143                                   15021000000114   
T3031392295PUN                                VIALE FRATELLI CAIROLI 45          TREVISO                            311001509TV093                                   059059                                   34021000000120   
T3031391545VIL                                VIA FISCALINA 13                   SESTO                              390301109BZ093                                   172107                                   10020000000143   
T3031392293PUN                                VIALE FRATELLI CAIROLI 45          TREVISO                            311001509TV093                                   059059                                   34021000000120   
T3031391551DIV                                VIA UMBERTO I 21                   CAMPOFELICE DI ROCCELLA            900101509PA093                                   032032                                   10020000000141   
T3031392305CN                                 VIA COSIMO DI PALMA 25/27          LECCE                              731001509LE093                                   221011                                   20021000000120   
T3031391546GUB                                PZA DON ANNIBALE VALIGI 1. PIANO 12PONTE SAN GIOVANNI                 061350109PG093                                   026026                                   20020000000142   
T3031392313RAI                                VIA VARESE 4                       MILANO                             201211509MI093                                   249249                                   09021000000120   
T3031392298LUI                                P.ZZA SAN GIOVANNI 2               TELVE VALSUGANA                    380501509TN093                                   172047                                   10021000000120   
T3031392293PUN                                VIALE FRATELLI CAIROLI 45          TREVISO                            311001509TV093                                   059059                                   34021000000120   
T3031392307CN                                 VIA COSIMO DI PALMA 25/27          LECCE                              731001509LE093                                   221011                                   20021000000120   
T3031391551DIV                                VIA UMBERTO I 21                   CAMPOFELICE DI ROCCELLA            900101509PA093                                   032032                                   10020000000141   
T3031391546GUB                                PZA DON ANNIBALE VALIGI 1. PIANO 12PONTE SAN GIOVANNI                 061350109PG093                                   026026                                   20020000000142   
T3031391546GUB                                PZA DON ANNIBALE VALIGI 1. PIANO 12PONTE SAN GIOVANNI                 061350109PG093                                   026026                                   20020000000142   
T3031391545VIL                                VIA FISCALINA 13                   SESTO                              390301109BZ093                                   172107                                   10020000000143   
T3031392305CN                                 VIA COSIMO DI PALMA 25/27          LECCE                              731001509LE093                                   221011                                   20021000000120   
T3031392305CN                                 VIA COSIMO DI PALMA 25/27          LECCE                              731001509LE093                                   221011                                   20021000000120   
T3031392311PRO                                VIA  CAPRIGLIONE 28                CAMPOBASSO                         861001509CB093                                   062057                                   76021000000120   
T3031392303RAI                                VIA VARESE 4                       MILANO                             201211509MI093                                   249249                                   09021000000120   
T3031392296PUN                                VIALE FRATELLI CAIROLI 45          TREVISO                            311001509TV093                                   059059                                   34021000000120   
T3031392308CN                                 VIA COSIMO DI PALMA 25/27          LECCE                              731001509LE093                                   221011                                   20021000000120   
T3031392315DI                                 VIA  ROMA 5                        CASTROVILLARI                      870121509CS093                                   015169                                   22021000000120   
T3031391547ELL                                VIA  DEI PACERI 36/A               FALCIANO  (RSM)                    47891130999093                                   131024                                   10020000000138   
T3031392310PRO                                VIA  CAPRIGLIONE 28                CAMPOBASSO                         861001509CB093                                   062057                                   76021000000120   
T3031391546GUB                                PZA DON ANNIBALE VALIGI 1. PIANO 12PONTE SAN GIOVANNI                 061350109PG093                                   026026                                   20020000000142   
T3031392293PUN                                VIALE FRATELLI CAIROLI 45          TREVISO                            311001509TV093                                   059059                                   34021000000120   
T3031392298LUI                                P.ZZA SAN GIOVANNI 2               TELVE VALSUGANA                    380501509TN093                                   172047                                   10021000000120   
T3031392311PRO                                VIA  CAPRIGLIONE 28                CAMPOBASSO                         861001509CB093                                   062057                                   76021000000120   
T3031392305CN                                 VIA COSIMO DI PALMA 25/27          LECCE                              731001509LE093                                   221011                                   20021000000120   
T3031391545VIL                                VIA FISCALINA 13                   SESTO                              390301109BZ093                                   172107                                   10020000000143   
T3031392316DI                                 VIA  ROMA 5                        CASTROVILLARI                      870121509CS093                                   015169                                   22021000000120   
T3031392299LUI                                P.ZZA SAN GIOVANNI 2               TELVE VALSUGANA                    380501509TN093                                   172047                                   10021000000120   
T3031392293PUN                                VIALE FRATELLI CAIROLI 45          TREVISO                            311001509TV093                                   059059                                   34021000000120   
T3031392313RAI                                VIA VARESE 4                       MILANO                             201211509MI093                                   249249                                   09021000000120   
T3031391545VIL                                VIA FISCALINA 13                   SESTO                              390301109BZ093                                   172107                                   10020000000143   
T3031392296PUN                                VIALE FRATELLI CAIROLI 45          TREVISO                            311001509TV093                                   059059                                   34021000000120   
T3031392310PRO                                VIA  CAPRIGLIONE 28                CAMPOBASSO                         861001509CB093                                   062057                                   76021000000120   
T3031392317DI                                 VIA  ROMA 5                        CASTROVILLARI                      870121509CS093                                   015169                                   22021000000120   
T3031392310PRO                                VIA  CAPRIGLIONE 28                CAMPOBASSO                         861001509CB093                                   062057                                   76021000000120   
T3031391545VIL                                VIA FISCALINA 13                   SESTO                              390301109BZ093                                   172107                                   10020000000143   
T3031391550G.B                                PZA  SANT'OLIVA 33/34              PALERMO                            901411509PA093                                   032032                                   20020000000140   
T3031392300LUI                                P.ZZA SAN GIOVANNI 2               TELVE VALSUGANA                    380501509TN093                                   172047                                   10021000000120   
T3031392304CN                                 VIA COSIMO DI PALMA 25/27          LECCE                              731001509LE093                                   221011                                   20021000000120   
T3031392296PUN                                VIALE FRATELLI CAIROLI 45          TREVISO                            311001509TV093                                   059059                                   34021000000120   
T3031392293PUN                                VIALE FRATELLI CAIROLI 45          TREVISO                            311001509TV093                                   059059                                   34021000000120   
T3031391545VIL                                VIA FISCALINA 13                   SESTO                              390301109BZ093                                   172107                                   10020000000143   
T3031392316DI                                 VIA  ROMA 5                        CASTROVILLARI                      870121509CS093                                   015169                                   22021000000120   
T3031391546GUB                                PZA DON ANNIBALE VALIGI 1. PIANO 12PONTE SAN GIOVANNI                 061350109PG093                                   026026                                   20020000000142   
T3031392300LUI                                P.ZZA SAN GIOVANNI 2               TELVE VALSUGANA                    380501509TN093                                   172047                                   10021000000120   
T3031392314DI                                 VIA  ROMA 5                        CASTROVILLARI                      870121509CS093                                   015169                                   22021000000120   
T3031392299LUI                                P.ZZA SAN GIOVANNI 2               TELVE VALSUGANA                    380501509TN093                                   172047                                   10021000000120   
T3031391550G.B                                PZA  SANT'OLIVA 33/34              PALERMO                            901411509PA093                                   032032                                   20020000000140   
T3031392305CN                                 VIA COSIMO DI PALMA 25/27          LECCE                              731001509LE093                                   221011                                   20021000000120   
T3031391546GUB                                PZA DON ANNIBALE VALIGI 1. PIANO 12PONTE SAN GIOVANNI                 061350109PG093                                   026026                                   20020000000142   
T3031392317DI                                 VIA  ROMA 5                        CASTROVILLARI                      870121509CS093                                   015169                                   22021000000120   
T3031391550G.B                                PZA  SANT'OLIVA 33/34              PALERMO                            901411509PA093                                   032032                                   20020000000140   
T3031392316DI                                 VIA  ROMA 5                        CASTROVILLARI                      870121509CS093                                   015169                                   22021000000120   
T3031392301RAI                                VIA VARESE 4                       MILANO                             201211509MI093                                   249249                                   09021000000120   
T3031392317DI                                 VIA  ROMA 5                        CASTROVILLARI                      870121509CS093                                   015169                                   22021000000120   
T3031391545VIL                                VIA FISCALINA 13                   SESTO                              390301109BZ093                                   172107                                   10020000000143   
T3031392295PUN                                VIALE FRATELLI CAIROLI 45          TREVISO                            311001509TV093                                   059059                                   34021000000120   
T3031392314DI                                 VIA  ROMA 5                        CASTROVILLARI                      870121509CS093                                   015169                                   22021000000120   
T3031392312PRO                                VIA  CAPRIGLIONE 28                CAMPOBASSO                         861001509CB093                                   062057                                   76021000000120   
T3031392297LUI                                P.ZZA SAN GIOVANNI 2               TELVE VALSUGANA                    380501509TN093                                   172047                                   10021000000120   
T3031392304CN                                 VIA COSIMO DI PALMA 25/27          LECCE                              731001509LE093                                   221011                                   20021000000120   
T3031392296PUN                                VIALE FRATELLI CAIROLI 45          TREVISO                            311001509TV093                                   059059                                   34021000000120   
T3031392302RAI                                VIA VARESE 4                       MILANO                             201211509MI093                                   249249                                   09021000000120   
T3031392307CN                                 VIA COSIMO DI PALMA 25/27          LECCE                              731001509LE093                                   221011                                   20021000000120   
T3031392298LUI                                P.ZZA SAN GIOVANNI 2               TELVE VALSUGANA                    380501509TN093                                   172047                                   10021000000120   
T3031392298LUI                                P.ZZA SAN GIOVANNI 2               TELVE VALSUGANA                    380501509TN093                                   172047                                   10021000000120   
T3031391551DIV                                VIA UMBERTO I 21                   CAMPOFELICE DI ROCCELLA            900101509PA093                                   032032                                   10020000000141   
T3031392305CN                                 VIA COSIMO DI PALMA 25/27          LECCE                              731001509LE093                                   221011                                   20021000000120   
T3031392294PUN                                VIALE FRATELLI CAIROLI 45          TREVISO                            311001509TV093                                   059059                                   34021000000120   
T3031391546GUB                                PZA DON ANNIBALE VALIGI 1. PIANO 12PONTE SAN GIOVANNI                 061350109PG093                                   026026                                   20020000000142   
T3031392314DI                                 VIA  ROMA 5                        CASTROVILLARI                      870121509CS093                                   015169                                   22021000000120   
T3031392312PRO                                VIA  CAPRIGLIONE 28                CAMPOBASSO                         861001509CB093                                   062057                                   76021000000120   
T3031392308CN                                 VIA COSIMO DI PALMA 25/27          LECCE                              731001509LE093                                   221011                                   20021000000120   
T3031392306CN                                 VIA COSIMO DI PALMA 25/27          LECCE                              731001509LE093                                   221011                                   20021000000120   
T3031391545VIL                                VIA FISCALINA 13                   SESTO                              390301109BZ093                                   172107                                   10020000000143   
T3031392312PRO                                VIA  CAPRIGLIONE 28                CAMPOBASSO                         861001509CB093                                   062057                                   76021000000120   
T3031392296PUN                                VIALE FRATELLI CAIROLI 45          TREVISO                            311001509TV093                                   059059                                   34021000000120   
T3031392306CN                                 VIA COSIMO DI PALMA 25/27          LECCE                              731001509LE093                                   221011                                   20021000000120   
T3031392315DI                                 VIA  ROMA 5                        CASTROVILLARI                      870121509CS093                                   015169                                   22021000000120   
T3031392312PRO                                VIA  CAPRIGLIONE 28                CAMPOBASSO                         861001509CB093                                   062057                                   76021000000120   
T3031392307CN                                 VIA COSIMO DI PALMA 25/27          LECCE                              731001509LE093                                   221011                                   20021000000120   
T3031391547ELL                                VIA  DEI PACERI 36/A               FALCIANO  (RSM)                    47891130999093                                   131024                                   10020000000138   
T3031392317DI                                 VIA  ROMA 5                        CASTROVILLARI                      870121509CS093                                   015169                                   22021000000120   
T3031392301RAI                                VIA VARESE 4                       MILANO                             201211509MI093                                   249249                                   09021000000120   
T3031391550G.B                                PZA  SANT'OLIVA 33/34              PALERMO                            901411509PA093                                   032032                                   20020000000140   
T3031392295PUN                                VIALE FRATELLI CAIROLI 45          TREVISO                            311001509TV093                                   059059                                   34021000000120   
T3031392306CN                                 VIA COSIMO DI PALMA 25/27          LECCE                              731001509LE093                                   221011                                   20021000000120   
T3031392295PUN                                VIALE FRATELLI CAIROLI 45          TREVISO                            311001509TV093                                   059059                                   34021000000120   
T3031392307CN                                 VIA COSIMO DI PALMA 25/27          LECCE                              731001509LE093                                   221011                                   20021000000120   
T3031392302RAI                                VIA VARESE 4                       MILANO                             201211509MI093                                   249249                                   09021000000120   
T3031392308CN                                 VIA COSIMO DI PALMA 25/27          LECCE                              731001509LE093                                   221011                                   20021000000120   
T3031392310PRO                                VIA  CAPRIGLIONE 28                CAMPOBASSO                         861001509CB093                                   062057                                   76021000000120   
T3031392299LUI                                P.ZZA SAN GIOVANNI 2               TELVE VALSUGANA                    380501509TN093                                   172047                                   10021000000120   
T3031392313RAI                                VIA VARESE 4                       MILANO                             201211509MI093                                   249249                                   09021000000120   
T3031392303RAI                                VIA VARESE 4                       MILANO                             201211509MI093                                   249249                                   09021000000120   
T3031391550G.B                                PZA  SANT'OLIVA 33/34              PALERMO                            901411509PA093                                   032032                                   20020000000140   
T3031392302RAI                                VIA VARESE 4                       MILANO                             201211509MI093                                   249249                                   09021000000120   
T3031392296PUN                                VIALE FRATELLI CAIROLI 45          TREVISO                            311001509TV093                                   059059                                   34021000000120   
T3031392299LUI                                P.ZZA SAN GIOVANNI 2               TELVE VALSUGANA                    380501509TN093                                   172047                                   10021000000120   
T3031392313RAI                                VIA VARESE 4                       MILANO                             201211509MI093                                   249249                                   09021000000120   
T3031392298LUI                                P.ZZA SAN GIOVANNI 2               TELVE VALSUGANA                    380501509TN093                                   172047                                   10021000000120   
T3031392317DI                                 VIA  ROMA 5                        CASTROVILLARI                      870121509CS093                                   015169                                   22021000000120   
T3031392301RAI                                VIA VARESE 4                       MILANO                             201211509MI093                                   249249                                   09021000000120   
T3031392315DI                                 VIA  ROMA 5                        CASTROVILLARI                      870121509CS093                                   015169                                   22021000000120   
T3031391546GUB                                PZA DON ANNIBALE VALIGI 1. PIANO 12PONTE SAN GIOVANNI                 061350109PG093                                   026026                                   20020000000142   
T3031391551DIV                                VIA UMBERTO I 21                   CAMPOFELICE DI ROCCELLA            900101509PA093                                   032032                                   10020000000141   
T3031392304CN                                 VIA COSIMO DI PALMA 25/27          LECCE                              731001509LE093                                   221011                                   20021000000120   
T3031392316DI                                 VIA  ROMA 5                        CASTROVILLARI                      870121509CS093                                   015169                                   22021000000120   
T3031392313RAI                                VIA VARESE 4                       MILANO                             201211509MI093                                   249249                                   09021000000120   
T3031391550G.B                                PZA  SANT'OLIVA 33/34              PALERMO                            901411509PA093                                   032032                                   20020000000140   
T3031391545VIL                                VIA FISCALINA 13                   SESTO                              390301109BZ093                                   172107                                   10020000000143   
T3031392316DI                                 VIA  ROMA 5                        CASTROVILLARI                      870121509CS093                                   015169                                   22021000000120   
T3031392302RAI                                VIA VARESE 4                       MILANO                             201211509MI093                                   249249                                   09021000000120   
T3031392302RAI                                VIA VARESE 4                       MILANO                             201211509MI093                                   249249                                   09021000000120   
T3031391547ELL                                VIA  DEI PACERI 36/A               FALCIANO  (RSM)                    47891130999093                                   131024                                   10020000000138   
T3031392307CN                                 VIA COSIMO DI PALMA 25/27          LECCE                              731001509LE093                                   221011                                   20021000000120   
T3031391547ELL                                VIA  DEI PACERI 36/A               FALCIANO  (RSM)                    47891130999093                                   131024                                   10020000000138   
T3031392313RAI                                VIA VARESE 4                       MILANO                             201211509MI093                                   249249                                   09021000000120   
T3031392305CN                                 VIA COSIMO DI PALMA 25/27          LECCE                              731001509LE093                                   221011                                   20021000000120   
T3031392310PRO                                VIA  CAPRIGLIONE 28                CAMPOBASSO                         861001509CB093                                   062057                                   76021000000120   
T3031392314DI                                 VIA  ROMA 5                        CASTROVILLARI                      870121509CS093                                   015169                                   22021000000120   
T3031392299LUI                                P.ZZA SAN GIOVANNI 2               TELVE VALSUGANA                    380501509TN093                                   172047                                   10021000000120   
T3031391547ELL                                VIA  DEI PACERI 36/A               FALCIANO  (RSM)                    47891130999093                                   131024                                   10020000000138   
T3031392312PRO                                VIA  CAPRIGLIONE 28                CAMPOBASSO                         861001509CB093                                   062057                                   76021000000120   
T3031392310PRO                                VIA  CAPRIGLIONE 28                CAMPOBASSO                         861001509CB093                                   062057                                   76021000000120   
T3031392312PRO                                VIA  CAPRIGLIONE 28                CAMPOBASSO                         861001509CB093                                   062057                                   76021000000120   
T3031392303RAI                                VIA VARESE 4                       MILANO                             201211509MI093                                   249249                                   09021000000120   
T3031392303RAI                                VIA VARESE 4                       MILANO                             201211509MI093                                   249249                                   09021000000120   
T3031392304CN                                 VIA COSIMO DI PALMA 25/27          LECCE                              731001509LE093                                   221011                                   20021000000120   
T3031392300LUI                                P.ZZA SAN GIOVANNI 2               TELVE VALSUGANA                    380501509TN093                                   172047                                   10021000000120   
T3031392300LUI                                P.ZZA SAN GIOVANNI 2               TELVE VALSUGANA                    380501509TN093                                   172047                                   10021000000120   
T3031391551DIV                                VIA UMBERTO I 21                   CAMPOFELICE DI ROCCELLA            900101509PA093                                   032032                                   10020000000141   
T3031392301RAI                                VIA VARESE 4                       MILANO                             201211509MI093                                   249249                                   09021000000120   
T3031392305CN                                 VIA COSIMO DI PALMA 25/27          LECCE                              731001509LE093                                   221011                                   20021000000120   
T3031392307CN                                 VIA COSIMO DI PALMA 25/27          LECCE                              731001509LE093                                   221011                                   20021000000120   
T3031392307CN                                 VIA COSIMO DI PALMA 25/27          LECCE                              731001509LE093                                   221011                                   20021000000120   
T3031392315DI                                 VIA  ROMA 5                        CASTROVILLARI                      870121509CS093                                   015169                                   22021000000120   
T3031392313RAI                                VIA VARESE 4                       MILANO                             201211509MI093                                   249249                                   09021000000120   
T3031392315DI                                 VIA  ROMA 5                        CASTROVILLARI                      870121509CS093                                   015169                                   22021000000120   
T3031392308CN                                 VIA COSIMO DI PALMA 25/27          LECCE                              731001509LE093                                   221011                                   20021000000120   
T3031392307CN                                 VIA COSIMO DI PALMA 25/27          LECCE                              731001509LE093                                   221011                                   20021000000120   
T3031392297LUI                                P.ZZA SAN GIOVANNI 2               TELVE VALSUGANA                    380501509TN093                                   172047                                   10021000000120   
T3031392300LUI                                P.ZZA SAN GIOVANNI 2               TELVE VALSUGANA                    380501509TN093                                   172047                                   10021000000120   
T3031392294PUN                                VIALE FRATELLI CAIROLI 45          TREVISO                            311001509TV093                                   059059                                   34021000000120   
T3031392316DI                                 VIA  ROMA 5                        CASTROVILLARI                      870121509CS093                                   015169                                   22021000000120   
T3031392311PRO                                VIA  CAPRIGLIONE 28                CAMPOBASSO                         861001509CB093                                   062057                                   76021000000120   
T3031392309PRO                                VIA  CAPRIGLIONE 28                CAMPOBASSO                         861001509CB093                                   062057                                   76021000000120   
T3031391551DIV                                VIA UMBERTO I 21                   CAMPOFELICE DI ROCCELLA            900101509PA093                                   032032                                   10020000000141   
T3031392298LUI                                P.ZZA SAN GIOVANNI 2               TELVE VALSUGANA                    380501509TN093                                   172047                                   10021000000120   
T3031392301RAI                                VIA VARESE 4                       MILANO                             201211509MI093                                   249249                                   09021000000120   
T3031392294PUN                                VIALE FRATELLI CAIROLI 45          TREVISO                            311001509TV093                                   059059                                   34021000000120   
T3031392313RAI                                VIA VARESE 4                       MILANO                             201211509MI093                                   249249                                   09021000000120   
T3031391546GUB                                PZA DON ANNIBALE VALIGI 1. PIANO 12PONTE SAN GIOVANNI                 061350109PG093                                   026026                                   20020000000142   
T3031392316DI                                 VIA  ROMA 5                        CASTROVILLARI                      870121509CS093                                   015169                                   22021000000120   
T3031392307CN                                 VIA COSIMO DI PALMA 25/27          LECCE                              731001509LE093                                   221011                                   20021000000120   
T3031392303RAI                                VIA VARESE 4                       MILANO                             201211509MI093                                   249249                                   09021000000120   
T3031392304CN                                 VIA COSIMO DI PALMA 25/27          LECCE                              731001509LE093                                   221011                                   20021000000120   
T3031392300LUI                                P.ZZA SAN GIOVANNI 2               TELVE VALSUGANA                    380501509TN093                                   172047                                   10021000000120   
T3031391550G.B                                PZA  SANT'OLIVA 33/34              PALERMO                            901411509PA093                                   032032                                   20020000000140   
T3031392300LUI                                P.ZZA SAN GIOVANNI 2               TELVE VALSUGANA                    380501509TN093                                   172047                                   10021000000120   
T3031392298LUI                                P.ZZA SAN GIOVANNI 2               TELVE VALSUGANA                    380501509TN093                                   172047                                   10021000000120   
T3031391545VIL                                VIA FISCALINA 13                   SESTO                              390301109BZ093                                   172107                                   10020000000143   
T3031392306CN                                 VIA COSIMO DI PALMA 25/27          LECCE                              731001509LE093                                   221011                                   20021000000120   
T3031392294PUN                                VIALE FRATELLI CAIROLI 45          TREVISO                            311001509TV093                                   059059                                   34021000000120   
T3031392314DI                                 VIA  ROMA 5                        CASTROVILLARI                      870121509CS093                                   015169                                   22021000000120   
T3031392294PUN                                VIALE FRATELLI CAIROLI 45          TREVISO                            311001509TV093                                   059059                                   34021000000120   
T3031392313RAI                                VIA VARESE 4                       MILANO                             201211509MI093                                   249249                                   09021000000120   
T3031392305CN                                 VIA COSIMO DI PALMA 25/27          LECCE                              731001509LE093                                   221011                                   20021000000120   
T3031392298LUI                                P.ZZA SAN GIOVANNI 2               TELVE VALSUGANA                    380501509TN093                                   172047                                   10021000000120   
T3031392317DI                                 VIA  ROMA 5                        CASTROVILLARI                      870121509CS093                                   015169                                   22021000000120   
T3031392308CN                                 VIA COSIMO DI PALMA 25/27          LECCE                              731001509LE093                                   221011                                   20021000000120   
T3031391550G.B                                PZA  SANT'OLIVA 33/34              PALERMO                            901411509PA093                                   032032                                   20020000000140   
T3031392297LUI                                P.ZZA SAN GIOVANNI 2               TELVE VALSUGANA                    380501509TN093                                   172047                                   10021000000120   
T3031392307CN                                 VIA COSIMO DI PALMA 25/27          LECCE                              731001509LE093                                   221011                                   20021000000120   
T3031392315DI                                 VIA  ROMA 5                        CASTROVILLARI                      870121509CS093                                   015169                                   22021000000120   
T3031392294PUN                                VIALE FRATELLI CAIROLI 45          TREVISO                            311001509TV093                                   059059                                   34021000000120   
T3031391546GUB                                PZA DON ANNIBALE VALIGI 1. PIANO 12PONTE SAN GIOVANNI                 061350109PG093                                   026026                                   20020000000142   
T3031392303RAI                                VIA VARESE 4                       MILANO                             201211509MI093                                   249249                                   09021000000120   
T3031392300LUI                                P.ZZA SAN GIOVANNI 2               TELVE VALSUGANA                    380501509TN093                                   172047                                   10021000000120   
T3031392317DI                                 VIA  ROMA 5                        CASTROVILLARI                      870121509CS093                                   015169                                   22021000000120   
T3031392314DI                                 VIA  ROMA 5                        CASTROVILLARI                      870121509CS093                                   015169                                   22021000000120   
T3031392295PUN                                VIALE FRATELLI CAIROLI 45          TREVISO                            311001509TV093                                   059059                                   34021000000120   
T3031392297LUI                                P.ZZA SAN GIOVANNI 2               TELVE VALSUGANA                    380501509TN093                                   172047                                   10021000000120   
T3031391550G.B                                PZA  SANT'OLIVA 33/34              PALERMO                            901411509PA093                                   032032                                   20020000000140   
T3031392298LUI                                P.ZZA SAN GIOVANNI 2               TELVE VALSUGANA                    380501509TN093                                   172047                                   10021000000120   
T3031392299LUI                                P.ZZA SAN GIOVANNI 2               TELVE VALSUGANA                    380501509TN093                                   172047                                   10021000000120   
T3031392313RAI                                VIA VARESE 4                       MILANO                             201211509MI093                                   249249                                   09021000000120   
T3031392303RAI                                VIA VARESE 4                       MILANO                             201211509MI093                                   249249                                   09021000000120   
T3031392298LUI                                P.ZZA SAN GIOVANNI 2               TELVE VALSUGANA                    380501509TN093                                   172047                                   10021000000120   
T3031392305CN                                 VIA COSIMO DI PALMA 25/27          LECCE                              731001509LE093                                   221011                                   20021000000120   
T3031392301RAI                                VIA VARESE 4                       MILANO                             201211509MI093                                   249249                                   09021000000120   
T3031392316DI                                 VIA  ROMA 5                        CASTROVILLARI                      870121509CS093                                   015169                                   22021000000120   
T3031392308CN                                 VIA COSIMO DI PALMA 25/27          LECCE                              731001509LE093                                   221011                                   20021000000120   
T3031392297LUI                                P.ZZA SAN GIOVANNI 2               TELVE VALSUGANA                    380501509TN093                                   172047                                   10021000000120   
T3031392298LUI                                P.ZZA SAN GIOVANNI 2               TELVE VALSUGANA                    380501509TN093                                   172047                                   10021000000120   
T3031392313RAI                                VIA VARESE 4                       MILANO                             201211509MI093                                   249249                                   09021000000120   
T3031392309PRO                                VIA  CAPRIGLIONE 28                CAMPOBASSO                         861001509CB093                                   062057                                   76021000000120   
T3031392297LUI                                P.ZZA SAN GIOVANNI 2               TELVE VALSUGANA                    380501509TN093                                   172047                                   10021000000120   
T3031392314DI                                 VIA  ROMA 5                        CASTROVILLARI                      870121509CS093                                   015169                                   22021000000120   
T3031392307CN                                 VIA COSIMO DI PALMA 25/27          LECCE                              731001509LE093                                   221011                                   20021000000120   
T3031392296PUN                                VIALE FRATELLI CAIROLI 45          TREVISO                            311001509TV093                                   059059                                   34021000000120   
T3031392302RAI                                VIA VARESE 4                       MILANO                             201211509MI093                                   249249                                   09021000000120   
T3031392313RAI                                VIA VARESE 4                       MILANO                             201211509MI093                                   249249                                   09021000000120   
T3031392304CN                                 VIA COSIMO DI PALMA 25/27          LECCE                              731001509LE093                                   221011                                   20021000000120   
T3031392299LUI                                P.ZZA SAN GIOVANNI 2               TELVE VALSUGANA                    380501509TN093                                   172047                                   10021000000120   
T3031392314DI                                 VIA  ROMA 5                        CASTROVILLARI                      870121509CS093                                   015169                                   22021000000120   
T3031392312PRO                                VIA  CAPRIGLIONE 28                CAMPOBASSO                         861001509CB093                                   062057                                   76021000000120   
T3031392316DI                                 VIA  ROMA 5                        CASTROVILLARI                      870121509CS093                                   015169                                   22021000000120   
T3031392302RAI                                VIA VARESE 4                       MILANO                             201211509MI093                                   249249                                   09021000000120   
T3031392299LUI                                P.ZZA SAN GIOVANNI 2               TELVE VALSUGANA                    380501509TN093                                   172047                                   10021000000120   
T3031392302RAI                                VIA VARESE 4                       MILANO                             201211509MI093                                   249249                                   09021000000120   
T3031392315DI                                 VIA  ROMA 5                        CASTROVILLARI                      870121509CS093                                   015169                                   22021000000120   
T3031392307CN                                 VIA COSIMO DI PALMA 25/27          LECCE                              731001509LE093                                   221011                                   20021000000120   
T3031392312PRO                                VIA  CAPRIGLIONE 28                CAMPOBASSO                         861001509CB093                                   062057                                   76021000000120   
T3031391546GUB                                PZA DON ANNIBALE VALIGI 1. PIANO 12PONTE SAN GIOVANNI                 061350109PG093                                   026026                                   20020000000142   
T3031392299LUI                                P.ZZA SAN GIOVANNI 2               TELVE VALSUGANA                    380501509TN093                                   172047                                   10021000000120   
T3031392311PRO                                VIA  CAPRIGLIONE 28                CAMPOBASSO                         861001509CB093                                   062057                                   76021000000120   
T3031392317DI                                 VIA  ROMA 5                        CASTROVILLARI                      870121509CS093                                   015169                                   22021000000120   
T3031392293PUN                                VIALE FRATELLI CAIROLI 45          TREVISO                            311001509TV093                                   059059                                   34021000000120   
T3031392305CN                                 VIA COSIMO DI PALMA 25/27          LECCE                              731001509LE093                                   221011                                   20021000000120   
T3031392314DI                                 VIA  ROMA 5                        CASTROVILLARI                      870121509CS093                                   015169                                   22021000000120   
T3031392300LUI                                P.ZZA SAN GIOVANNI 2               TELVE VALSUGANA                    380501509TN093                                   172047                                   10021000000120   
T3031392304CN                                 VIA COSIMO DI PALMA 25/27          LECCE                              731001509LE093                                   221011                                   20021000000120   
T3031391551DIV                                VIA UMBERTO I 21                   CAMPOFELICE DI ROCCELLA            900101509PA093                                   032032                                   10020000000141   
T3031391547ELL                                VIA  DEI PACERI 36/A               FALCIANO  (RSM)                    47891130999093                                   131024                                   10020000000138   
T3031392307CN                                 VIA COSIMO DI PALMA 25/27          LECCE                              731001509LE093                                   221011                                   20021000000120   
T3031392295PUN                                VIALE FRATELLI CAIROLI 45          TREVISO                            311001509TV093                                   059059                                   34021000000120   
T3031392309PRO                                VIA  CAPRIGLIONE 28                CAMPOBASSO                         861001509CB093                                   062057                                   76021000000120   
T3031392293PUN                                VIALE FRATELLI CAIROLI 45          TREVISO                            311001509TV093                                   059059                                   34021000000120   
T3031392304CN                                 VIA COSIMO DI PALMA 25/27          LECCE                              731001509LE093                                   221011                                   20021000000120   
T3031392312PRO                                VIA  CAPRIGLIONE 28                CAMPOBASSO                         861001509CB093                                   062057                                   76021000000120   
T3031392311PRO                                VIA  CAPRIGLIONE 28                CAMPOBASSO                         861001509CB093                                   062057                                   76021000000120   
T3031392310PRO                                VIA  CAPRIGLIONE 28                CAMPOBASSO                         861001509CB093                                   062057                                   76021000000120   
T3031392302RAI                                VIA VARESE 4                       MILANO                             201211509MI093                                   249249                                   09021000000120   
T3031392295PUN                                VIALE FRATELLI CAIROLI 45          TREVISO                            311001509TV093                                   059059                                   34021000000120   
T3031392312PRO                                VIA  CAPRIGLIONE 28                CAMPOBASSO                         861001509CB093                                   062057                                   76021000000120   
T3031392299LUI                                P.ZZA SAN GIOVANNI 2               TELVE VALSUGANA                    380501509TN093                                   172047                                   10021000000120   
T3031392304CN                                 VIA COSIMO DI PALMA 25/27          LECCE                              731001509LE093                                   221011                                   20021000000120   
T3031391547ELL                                VIA  DEI PACERI 36/A               FALCIANO  (RSM)                    47891130999093                                   131024                                   10020000000138   
T3031392311PRO                                VIA  CAPRIGLIONE 28                CAMPOBASSO                         861001509CB093                                   062057                                   76021000000120   
T3031392301RAI                                VIA VARESE 4                       MILANO                             201211509MI093                                   249249                                   09021000000120   
T3031391551DIV                                VIA UMBERTO I 21                   CAMPOFELICE DI ROCCELLA            900101509PA093                                   032032                                   10020000000141   
T3031392311PRO                                VIA  CAPRIGLIONE 28                CAMPOBASSO                         861001509CB093                                   062057                                   76021000000120   
T3031392296PUN                                VIALE FRATELLI CAIROLI 45          TREVISO                            311001509TV093                                   059059                                   34021000000120   
T3031392311PRO                                VIA  CAPRIGLIONE 28                CAMPOBASSO                         861001509CB093                                   062057                                   76021000000120   
T3031391550G.B                                PZA  SANT'OLIVA 33/34              PALERMO                            901411509PA093                                   032032                                   20020000000140   
T3031392315DI                                 VIA  ROMA 5                        CASTROVILLARI                      870121509CS093                                   015169                                   22021000000120   
T3031392295PUN                                VIALE FRATELLI CAIROLI 45          TREVISO                            311001509TV093                                   059059                                   34021000000120   
T3031391547ELL                                VIA  DEI PACERI 36/A               FALCIANO  (RSM)                    47891130999093                                   131024                                   10020000000138   
T3031391545VIL                                VIA FISCALINA 13                   SESTO                              390301109BZ093                                   172107                                   10020000000143   
T3031392315DI                                 VIA  ROMA 5                        CASTROVILLARI                      870121509CS093                                   015169                                   22021000000120   
T3031391546GUB                                PZA DON ANNIBALE VALIGI 1. PIANO 12PONTE SAN GIOVANNI                 061350109PG093                                   026026                                   20020000000142   
T3031392294PUN                                VIALE FRATELLI CAIROLI 45          TREVISO                            311001509TV093                                   059059                                   34021000000120   
T3031391547ELL                                VIA  DEI PACERI 36/A               FALCIANO  (RSM)                    47891130999093                                   131024                                   10020000000138   
T3031391547ELL                                VIA  DEI PACERI 36/A               FALCIANO  (RSM)                    47891130999093                                   131024                                   10020000000138   
T3031392317DI                                 VIA  ROMA 5                        CASTROVILLARI                      870121509CS093                                   015169                                   22021000000120   
T3031392311PRO                                VIA  CAPRIGLIONE 28                CAMPOBASSO                         861001509CB093                                   062057                                   76021000000120   
T3031392307CN                                 VIA COSIMO DI PALMA 25/27          LECCE                              731001509LE093                                   221011                                   20021000000120   
T3031392298LUI                                P.ZZA SAN GIOVANNI 2               TELVE VALSUGANA                    380501509TN093                                   172047                                   10021000000120   
T3031392299LUI                                P.ZZA SAN GIOVANNI 2               TELVE VALSUGANA                    380501509TN093                                   172047                                   10021000000120   
T3031392306CN                                 VIA COSIMO DI PALMA 25/27          LECCE                              731001509LE093                                   221011                                   20021000000120   
T3031391551DIV                                VIA UMBERTO I 21                   CAMPOFELICE DI ROCCELLA            900101509PA093                                   032032                                   10020000000141   
T3031391546GUB                                PZA DON ANNIBALE VALIGI 1. PIANO 12PONTE SAN GIOVANNI                 061350109PG093                                   026026                                   20020000000142   
T3031392310PRO                                VIA  CAPRIGLIONE 28                CAMPOBASSO                         861001509CB093                                   062057                                   76021000000120   
T3031391547ELL                                VIA  DEI PACERI 36/A               FALCIANO  (RSM)                    47891130999093                                   131024                                   10020000000138   
T3031392304CN                                 VIA COSIMO DI PALMA 25/27          LECCE                              731001509LE093                                   221011                                   20021000000120   
T3031392296PUN                                VIALE FRATELLI CAIROLI 45          TREVISO                            311001509TV093                                   059059                                   34021000000120   
T3031392303RAI                                VIA VARESE 4                       MILANO                             201211509MI093                                   249249                                   09021000000120   
T3031392311PRO                                VIA  CAPRIGLIONE 28                CAMPOBASSO                         861001509CB093                                   062057                                   76021000000120   
T3031392311PRO                                VIA  CAPRIGLIONE 28                CAMPOBASSO                         861001509CB093                                   062057                                   76021000000120   
T3031392310PRO                                VIA  CAPRIGLIONE 28                CAMPOBASSO                         861001509CB093                                   062057                                   76021000000120   
T3031392306CN                                 VIA COSIMO DI PALMA 25/27          LECCE                              731001509LE093                                   221011                                   20021000000120   
T3031392309PRO                                VIA  CAPRIGLIONE 28                CAMPOBASSO                         861001509CB093                                   062057                                   76021000000120   
T3031392298LUI                                P.ZZA SAN GIOVANNI 2               TELVE VALSUGANA                    380501509TN093                                   172047                                   10021000000120   
T3031391545VIL                                VIA FISCALINA 13                   SESTO                              390301109BZ093                                   172107                                   10020000000143   
T3031392298LUI                                P.ZZA SAN GIOVANNI 2               TELVE VALSUGANA                    380501509TN093                                   172047                                   10021000000120   
T3031392313RAI                                VIA VARESE 4                       MILANO                             201211509MI093                                   249249                                   09021000000120   
T3031392317DI                                 VIA  ROMA 5                        CASTROVILLARI                      870121509CS093                                   015169                                   22021000000120   
T3031392310PRO                                VIA  CAPRIGLIONE 28                CAMPOBASSO                         861001509CB093                                   062057                                   76021000000120   
T3031391550G.B                                PZA  SANT'OLIVA 33/34              PALERMO                            901411509PA093                                   032032                                   20020000000140   
T3031392297LUI                                P.ZZA SAN GIOVANNI 2               TELVE VALSUGANA                    380501509TN093                                   172047                                   10021000000120   
T3031392298LUI                                P.ZZA SAN GIOVANNI 2               TELVE VALSUGANA                    380501509TN093                                   172047                                   10021000000120   
T3031392310PRO                                VIA  CAPRIGLIONE 28                CAMPOBASSO                         861001509CB093                                   062057                                   76021000000120   
T3031392314DI                                 VIA  ROMA 5                        CASTROVILLARI                      870121509CS093                                   015169                                   22021000000120   
T3031392293PUN                                VIALE FRATELLI CAIROLI 45          TREVISO                            311001509TV093                                   059059                                   34021000000120   
T3031392297LUI                                P.ZZA SAN GIOVANNI 2               TELVE VALSUGANA                    380501509TN093                                   172047                                   10021000000120   
T3031392297LUI                                P.ZZA SAN GIOVANNI 2               TELVE VALSUGANA                    380501509TN093                                   172047                                   10021000000120   
T3031392302RAI                                VIA VARESE 4                       MILANO                             201211509MI093                                   249249                                   09021000000120   
T3031392315DI                                 VIA  ROMA 5                        CASTROVILLARI                      870121509CS093                                   015169                                   22021000000120   
T3031392299LUI                                P.ZZA SAN GIOVANNI 2               TELVE VALSUGANA                    380501509TN093                                   172047                                   10021000000120   
T3031392311PRO                                VIA  CAPRIGLIONE 28                CAMPOBASSO                         861001509CB093                                   062057                                   76021000000120   
T3031392316DI                                 VIA  ROMA 5                        CASTROVILLARI                      870121509CS093                                   015169                                   22021000000120   
T3031392316DI                                 VIA  ROMA 5                        CASTROVILLARI                      870121509CS093                                   015169                                   22021000000120   
T3031392308CN                                 VIA COSIMO DI PALMA 25/27          LECCE                              731001509LE093                                   221011                                   20021000000120   
T3031392307CN                                 VIA COSIMO DI PALMA 25/27          LECCE                              731001509LE093                                   221011                                   20021000000120   
T3031392298LUI                                P.ZZA SAN GIOVANNI 2               TELVE VALSUGANA                    380501509TN093                                   172047                                   10021000000120   
T3031392314DI                                 VIA  ROMA 5                        CASTROVILLARI                      870121509CS093                                   015169                                   22021000000120   
T3031391551DIV                                VIA UMBERTO I 21                   CAMPOFELICE DI ROCCELLA            900101509PA093                                   032032                                   10020000000141   
T3031392313RAI                                VIA VARESE 4                       MILANO                             201211509MI093                                   249249                                   09021000000120   
T3031392314DI                                 VIA  ROMA 5                        CASTROVILLARI                      870121509CS093                                   015169                                   22021000000120   
T3031392311PRO                                VIA  CAPRIGLIONE 28                CAMPOBASSO                         861001509CB093                                   062057                                   76021000000120   
T3031392294PUN                                VIALE FRATELLI CAIROLI 45          TREVISO                            311001509TV093                                   059059                                   34021000000120   
T3031392316DI                                 VIA  ROMA 5                        CASTROVILLARI                      870121509CS093                                   015169                                   22021000000120   
T3031392309PRO                                VIA  CAPRIGLIONE 28                CAMPOBASSO                         861001509CB093                                   062057                                   76021000000120   
T3031392303RAI                                VIA VARESE 4                       MILANO                             201211509MI093                                   249249                                   09021000000120   
T3031391551DIV                                VIA UMBERTO I 21                   CAMPOFELICE DI ROCCELLA            900101509PA093                                   032032                                   10020000000141   
T3031392297LUI                                P.ZZA SAN GIOVANNI 2               TELVE VALSUGANA                    380501509TN093                                   172047                                   10021000000120   
T3031392311PRO                                VIA  CAPRIGLIONE 28                CAMPOBASSO                         861001509CB093                                   062057                                   76021000000120   
T3031392299LUI                                P.ZZA SAN GIOVANNI 2               TELVE VALSUGANA                    380501509TN093                                   172047                                   10021000000120   
T3031392293PUN                                VIALE FRATELLI CAIROLI 45          TREVISO                            311001509TV093                                   059059                                   34021000000120   
T3031392308CN                                 VIA COSIMO DI PALMA 25/27          LECCE                              731001509LE093                                   221011                                   20021000000120   
T3031392312PRO                                VIA  CAPRIGLIONE 28                CAMPOBASSO                         861001509CB093                                   062057                                   76021000000120   
T3031392305CN                                 VIA COSIMO DI PALMA 25/27          LECCE                              731001509LE093                                   221011                                   20021000000120   
T3031391547ELL                                VIA  DEI PACERI 36/A               FALCIANO  (RSM)                    47891130999093                                   131024                                   10020000000138   
T3031392317DI                                 VIA  ROMA 5                        CASTROVILLARI                      870121509CS093                                   015169                                   22021000000120   
T3031392298LUI                                P.ZZA SAN GIOVANNI 2               TELVE VALSUGANA                    380501509TN093                                   172047                                   10021000000120   
T3031392297LUI                                P.ZZA SAN GIOVANNI 2               TELVE VALSUGANA                    380501509TN093                                   172047                                   10021000000120   
T3031392301RAI                                VIA VARESE 4                       MILANO                             201211509MI093                                   249249                                   09021000000120   
T3031392306CN                                 VIA COSIMO DI PALMA 25/27          LECCE                              731001509LE093                                   221011                                   20021000000120   
T3031392306CN                                 VIA COSIMO DI PALMA 25/27          LECCE                              731001509LE093                                   221011                                   20021000000120   
T3031392308CN                                 VIA COSIMO DI PALMA 25/27          LECCE                              731001509LE093                                   221011                                   20021000000120   
T3031392312PRO                                VIA  CAPRIGLIONE 28                CAMPOBASSO                         861001509CB093                                   062057                                   76021000000120   
T3031392314DI                                 VIA  ROMA 5                        CASTROVILLARI                      870121509CS093                                   015169                                   22021000000120   
T3031392308CN                                 VIA COSIMO DI PALMA 25/27          LECCE                              731001509LE093                                   221011                                   20021000000120   
T3031392312PRO                                VIA  CAPRIGLIONE 28                CAMPOBASSO                         861001509CB093                                   062057                                   76021000000120   
T3031392295PUN                                VIALE FRATELLI CAIROLI 45          TREVISO                            311001509TV093                                   059059                                   34021000000120   
T3031392309PRO                                VIA  CAPRIGLIONE 28                CAMPOBASSO                         861001509CB093                                   062057                                   76021000000120   
T3031391551DIV                                VIA UMBERTO I 21                   CAMPOFELICE DI ROCCELLA            900101509PA093                                   032032                                   10020000000141   
T3031392294PUN                                VIALE FRATELLI CAIROLI 45          TREVISO                            311001509TV093                                   059059                                   34021000000120   
T3031392314DI                                 VIA  ROMA 5                        CASTROVILLARI                      870121509CS093                                   015169                                   22021000000120   
T3031392306CN                                 VIA COSIMO DI PALMA 25/27          LECCE                              731001509LE093                                   221011                                   20021000000120   
T3031392293PUN                                VIALE FRATELLI CAIROLI 45          TREVISO                            311001509TV093                                   059059                                   34021000000120   
T3031391551DIV                                VIA UMBERTO I 21                   CAMPOFELICE DI ROCCELLA            900101509PA093                                   032032                                   10020000000141   
T3031392317DI                                 VIA  ROMA 5                        CASTROVILLARI                      870121509CS093                                   015169                                   22021000000120   
T3031392310PRO                                VIA  CAPRIGLIONE 28                CAMPOBASSO                         861001509CB093                                   062057                                   76021000000120   
T3031392294PUN                                VIALE FRATELLI CAIROLI 45          TREVISO                            311001509TV093                                   059059                                   34021000000120   
T3031391545VIL                                VIA FISCALINA 13                   SESTO                              390301109BZ093                                   172107                                   10020000000143   
T3031392308CN                                 VIA COSIMO DI PALMA 25/27          LECCE                              731001509LE093                                   221011                                   20021000000120   
T3031392298LUI                                P.ZZA SAN GIOVANNI 2               TELVE VALSUGANA                    380501509TN093                                   172047                                   10021000000120   
T3031392297LUI                                P.ZZA SAN GIOVANNI 2               TELVE VALSUGANA                    380501509TN093                                   172047                                   10021000000120   
T3031392299LUI                                P.ZZA SAN GIOVANNI 2               TELVE VALSUGANA                    380501509TN093                                   172047                                   10021000000120   
T3031392310PRO                                VIA  CAPRIGLIONE 28                CAMPOBASSO                         861001509CB093                                   062057                                   76021000000120   
T3031392297LUI                                P.ZZA SAN GIOVANNI 2               TELVE VALSUGANA                    380501509TN093                                   172047                                   10021000000120   
T3031392305CN                                 VIA COSIMO DI PALMA 25/27          LECCE                              731001509LE093                                   221011                                   20021000000120   
T3031392309PRO                                VIA  CAPRIGLIONE 28                CAMPOBASSO                         861001509CB093                                   062057                                   76021000000120   
T3031392294PUN                                VIALE FRATELLI CAIROLI 45          TREVISO                            311001509TV093                                   059059                                   34021000000120   
T3031392303RAI                                VIA VARESE 4                       MILANO                             201211509MI093                                   249249                                   09021000000120   
T3031392296PUN                                VIALE FRATELLI CAIROLI 45          TREVISO                            311001509TV093                                   059059                                   34021000000120   
T3031391551DIV                                VIA UMBERTO I 21                   CAMPOFELICE DI ROCCELLA            900101509PA093                                   032032                                   10020000000141   
T3031391547ELL                                VIA  DEI PACERI 36/A               FALCIANO  (RSM)                    47891130999093                                   131024                                   10020000000138   
T3031392299LUI                                P.ZZA SAN GIOVANNI 2               TELVE VALSUGANA                    380501509TN093                                   172047                                   10021000000120   
T3031391551DIV                                VIA UMBERTO I 21                   CAMPOFELICE DI ROCCELLA            900101509PA093                                   032032                                   10020000000141   
T3031392315DI                                 VIA  ROMA 5                        CASTROVILLARI                      870121509CS093                                   015169                                   22021000000120   
T3031392316DI                                 VIA  ROMA 5                        CASTROVILLARI                      870121509CS093                                   015169                                   22021000000120   
T3031392312PRO                                VIA  CAPRIGLIONE 28                CAMPOBASSO                         861001509CB093                                   062057                                   76021000000120   
T3031392294PUN                                VIALE FRATELLI CAIROLI 45          TREVISO                            311001509TV093                                   059059                                   34021000000120   
T3031391550G.B                                PZA  SANT'OLIVA 33/34              PALERMO                            901411509PA093                                   032032                                   20020000000140   
T3031392305CN                                 VIA COSIMO DI PALMA 25/27          LECCE                              731001509LE093                                   221011                                   20021000000120   
T3031392310PRO                                VIA  CAPRIGLIONE 28                CAMPOBASSO                         861001509CB093                                   062057                                   76021000000120   
T3031392299LUI                                P.ZZA SAN GIOVANNI 2               TELVE VALSUGANA                    380501509TN093                                   172047                                   10021000000120   
T3031392299LUI                                P.ZZA SAN GIOVANNI 2               TELVE VALSUGANA                    380501509TN093                                   172047                                   10021000000120   
T3031392293PUN                                VIALE FRATELLI CAIROLI 45          TREVISO                            311001509TV093                                   059059                                   34021000000120   
T3031392303RAI                                VIA VARESE 4                       MILANO                             201211509MI093                                   249249                                   09021000000120   
T3031392305CN                                 VIA COSIMO DI PALMA 25/27          LECCE                              731001509LE093                                   221011                                   20021000000120   
T3031391547ELL                                VIA  DEI PACERI 36/A               FALCIANO  (RSM)                    47891130999093                                   131024                                   10020000000138   
T3031392304CN                                 VIA COSIMO DI PALMA 25/27          LECCE                              731001509LE093                                   221011                                   20021000000120   
T3031392316DI                                 VIA  ROMA 5                        CASTROVILLARI                      870121509CS093                                   015169                                   22021000000120   
T3031392293PUN                                VIALE FRATELLI CAIROLI 45          TREVISO                            311001509TV093                                   059059                                   34021000000120   
T3031392300LUI                                P.ZZA SAN GIOVANNI 2               TELVE VALSUGANA                    380501509TN093                                   172047                                   10021000000120   
T3031391551DIV                                VIA UMBERTO I 21                   CAMPOFELICE DI ROCCELLA            900101509PA093                                   032032                                   10020000000141   
T3031392306CN                                 VIA COSIMO DI PALMA 25/27          LECCE                              731001509LE093                                   221011                                   20021000000120   
T3031392306CN                                 VIA COSIMO DI PALMA 25/27          LECCE                              731001509LE093                                   221011                                   20021000000120   
T3031391551DIV                                VIA UMBERTO I 21                   CAMPOFELICE DI ROCCELLA            900101509PA093                                   032032                                   10020000000141   
T3031392307CN                                 VIA COSIMO DI PALMA 25/27          LECCE                              731001509LE093                                   221011                                   20021000000120   
T3031392307CN                                 VIA COSIMO DI PALMA 25/27          LECCE                              731001509LE093                                   221011                                   20021000000120   
T3031392300LUI                                P.ZZA SAN GIOVANNI 2               TELVE VALSUGANA                    380501509TN093                                   172047                                   10021000000120   
T3031392300LUI                                P.ZZA SAN GIOVANNI 2               TELVE VALSUGANA                    380501509TN093                                   172047                                   10021000000120   
T3031392303RAI                                VIA VARESE 4                       MILANO                             201211509MI093                                   249249                                   09021000000120   
T3031392316DI                                 VIA  ROMA 5                        CASTROVILLARI                      870121509CS093                                   015169                                   22021000000120   
T3031392308CN                                 VIA COSIMO DI PALMA 25/27          LECCE                              731001509LE093                                   221011                                   20021000000120   
T3031392308CN                                 VIA COSIMO DI PALMA 25/27          LECCE                              731001509LE093                                   221011                                   20021000000120   
T3031392304CN                                 VIA COSIMO DI PALMA 25/27          LECCE                              731001509LE093                                   221011                                   20021000000120   
T3031392303RAI                                VIA VARESE 4                       MILANO                             201211509MI093                                   249249                                   09021000000120   
T3031392294PUN                                VIALE FRATELLI CAIROLI 45          TREVISO                            311001509TV093                                   059059                                   34021000000120   
T3031392315DI                                 VIA  ROMA 5                        CASTROVILLARI                      870121509CS093                                   015169                                   22021000000120   
T3031392310PRO                                VIA  CAPRIGLIONE 28                CAMPOBASSO                         861001509CB093                                   062057                                   76021000000120   
T3031392312PRO                                VIA  CAPRIGLIONE 28                CAMPOBASSO                         861001509CB093                                   062057                                   76021000000120   
T3031392309PRO                                VIA  CAPRIGLIONE 28                CAMPOBASSO                         861001509CB093                                   062057                                   76021000000120   
T3031392315DI                                 VIA  ROMA 5                        CASTROVILLARI                      870121509CS093                                   015169                                   22021000000120   
T3031392301RAI                                VIA VARESE 4                       MILANO                             201211509MI093                                   249249                                   09021000000120   
T3031392313RAI                                VIA VARESE 4                       MILANO                             201211509MI093                                   249249                                   09021000000120   
T3031391546GUB                                PZA DON ANNIBALE VALIGI 1. PIANO 12PONTE SAN GIOVANNI                 061350109PG093                                   026026                                   20020000000142   
T3031392314DI                                 VIA  ROMA 5                        CASTROVILLARI                      870121509CS093                                   015169                                   22021000000120   
T3031392293PUN                                VIALE FRATELLI CAIROLI 45          TREVISO                            311001509TV093                                   059059                                   34021000000120   
T3031391546GUB                                PZA DON ANNIBALE VALIGI 1. PIANO 12PONTE SAN GIOVANNI                 061350109PG093                                   026026                                   20020000000142   
T3031392309PRO                                VIA  CAPRIGLIONE 28                CAMPOBASSO                         861001509CB093                                   062057                                   76021000000120   
T3031392309PRO                                VIA  CAPRIGLIONE 28                CAMPOBASSO                         861001509CB093                                   062057                                   76021000000120   
T3031392299LUI                                P.ZZA SAN GIOVANNI 2               TELVE VALSUGANA                    380501509TN093                                   172047                                   10021000000120   
T3031392299LUI                                P.ZZA SAN GIOVANNI 2               TELVE VALSUGANA                    380501509TN093                                   172047                                   10021000000120   
T3031392306CN                                 VIA COSIMO DI PALMA 25/27          LECCE                              731001509LE093                                   221011                                   20021000000120   
T3031392305CN                                 VIA COSIMO DI PALMA 25/27          LECCE                              731001509LE093                                   221011                                   20021000000120   
T3031392317DI                                 VIA  ROMA 5                        CASTROVILLARI                      870121509CS093                                   015169                                   22021000000120   
T3031391545VIL                                VIA FISCALINA 13                   SESTO                              390301109BZ093                                   172107                                   10020000000143   
